:1000000000000320D1010000253B0000DD3A000084
:10001000DD3A0000DD3A0000DD3A0000DD3A000084
:10002000DD3A0000DD3A0000DD3A0000253B00002B
:10003000253B0000DD3A0000255500002956000050
:10004000253B0000253B0000253B0000253B000030
:10005000253B0000253B0000253B0000253B000020
:10006000253B0000253B0000253B0000253B000010
:10007000253B0000253B0000253B0000253B000000
:10008000253B0000253B0000253B0000253B0000F0
:10009000253B0000253B0000253B0000253B0000E0
:1000A000253B0000253B0000253B0000253B0000D0
:1000B000253B0000253B0000253B0000155E0000AD
:1000C000253B0000415F0000253B0000A9400000E7
:1000D000253B00006D600000253B0000253B000033
:1000E000253B0000253B0000253B0000253B000090
:1000F000253B0000253B0000253B0000253B000080
:10010000253B0000253B0000253B0000253B00006F
:10011000253B000031450000253B0000253B000049
:10012000253B0000253B0000253B0000253B00004F
:10013000253B0000253B0000253B0000253B00003F
:10014000253B0000253B0000A5420000253B0000A8
:10015000253B0000253B0000253B0000253B00001F
:10016000253B0000253B0000253B0000253B00000F
:10017000253B0000253B0000253B0000253B0000FF
:10018000253B0000253B0000253B0000253B0000EF
:10019000253B0000253B000065610000253B000079
:1001A000253B0000253B0000253B0000253B0000CF
:1001B000253B0000253B0000253B0000253B0000BF
:1001C000253B0000253B0000253B0000253B0000AF
:1001D0005C4B4CF2205210B51A804DF628121A8052
:1001E00000BF00BF03F0A2FC574B4FF030621A6013
:1001F000564A9A60564ADA60564B4FF470021A60BB
:10020000554B564A1A60564B1A78110703D51A787F
:1002100042F008021A70534B5349AA221A70534AEB
:10022000534B8B4204D252F8040F43F8040BF8E707
:10023000504B514900228B4202D243F8042BFAE77B
:100240004E494F4A002352F8230041F8230001335E
:10025000742BF8D14B4B4C4A802103F8011B93427D
:10026000FBD14A4B454A1A60494B8A221A70A3F5C2
:10027000805324225A70A0221A709A799207FCD5D2
:100280009A79D406FCD4434A937903F00C03082BE3
:10029000FAD1414B60221A7002331A78802AFCD1BD
:1002A0003C4B01221A715D225A719A799006FCD555
:1002B0009979384A4906FBD5384B394919600021EC
:1002C000596020231370937903F00C030C2BFAD19F
:1002D000344B354A1A60354A354C136813F4807331
:1002E00003D123604FF4A8531360324B324A1A6093
:1002F00000225A60072243F8042C304AC3F80C2D20
:1003000062B603F055FD2368DA0705D52C4803F0E3
:10031000DFFC2C4B2C4A1A602C4B1B785B0609D552
:10032000284C294B22689A4204D1254803F0D0FC7E
:100330000023236006F09CFC03F0FEFB05F07CF933
:10034000FEE700BF0E20054030800440823F0400DD
:100350000100002B88ED00E0002008E0030000858C
:1003600002D0074000E00740E811FF1F78BA000004
:100370003007FF1FE811FF1F7C1AFF1F0002FF1F3D
:100380000000000000E400E064E400E008ED00E0AC
:10039000005006400040064001E007404480044011
:1003A0000000060204800440C010070010D0034083
:1003B00014D0034014E000E01FBF02000000202022
:1003C000B4EF8C5E1CE00340A5C3945A00F00740D4
:1003D000FFFFFFFFFFFFFFFFFFFFFFFFFFFFFFFF2D
:1003E000FFFFFFFFFFFFFFFFFFFFFFFFFFFFFFFF1D
:1003F000FFFFFFFFFFFFFFFFFFFFFFFFFFFFFFFF0D
:10040000FFFFFFFFFFFFFFFFFFFFFFFFDEF9FFFF23
:1004100010B5054C237833B9044B13B10448AFF33E
:1004200000800123237010BDE811FF1F00000000B1
:1004300074BA0000084B10B51BB108490848AFF367
:1004400000800848036803B910BD074B002BFBD0A0
:10045000BDE81040184700BF00000000EC11FF1F6E
:1004600074BA0000E811FF1F0000000010B5044638
:10047000143001F01DFA201D05F064FA204610BD6D
:1004800008B540F6B831164801F094F84FF4E13160
:10049000134801F08BF80121114801F061F850B1C7
:1004A0001021104804F0D8FE0D480A2100F0CEFFBC
:1004B0000B4801F079F800210122094801F026F9E2
:1004C00043F2D40003F05CFE43F2D40003F078FD65
:1004D000054B06481968BDE8084000F091B900BF17
:1004E0004C13FF1FFCB100003407FF1F0412FF1F55
:1004F0002DE9F041A04C94B023680D930D9B23B9D6
:1005000023680E930E9B012B21D99C489C4D00F033
:10051000AFFF2A689B49904203460860C0F01381F0
:100520009A1AF92A13D94FF4FA7194482B6000F003
:10053000A9FF0121914801F013F8002840F005813E
:100540008E48052100F082FF8C4800F0FFFF0BADC4
:100550002B460AAA09A98C4800F0ACFE8B4805F08E
:10056000AFF80DF123000DF122010DF1210208ABCE
:100570000390029101920CA90DF11E020093824892
:1005800004950DF11F0300F0CDFE242004F0E8FED9
:100590007E4805F095F89DF822109DF821309DF8D1
:1005A0002020009112A87A4907F05EF912A807F0FE
:1005B00047FA014612A804F04FFE744805F080F88F
:1005C000099805F0F3FF41EC100B0A216F4805F084
:1005D000C7F86E4805F074F80A9805F0E7FF41EC9B
:1005E000100B0A21694805F0BBF8684805F068F867
:1005F000654800F015FF10EE100A05F0D7FF41EC3A
:10060000100B0221614805F0ABF8604805F058F87E
:100610005D4800F005FF5F490B780133DBB23C2BEE
:100620000B7076D05C4A5D495D48DFF898C1077869
:100630009CF800E0A2FB0352A1FB03519608D508E9
:10064000C908120906EB860605EB850502EB820256
:10065000C1EB01119E1BA3EB4505A3EB8202591AC6
:100660003C2FF6B2EDB2D2B2C9B263D0BEF1180FD0
:1006700004BF4FF0000E8CF800E0002E45D0494E2C
:1006800049480DB9494D0560002933D04849002A31
:1006900035D10022154632609446026090460A60C9
:1006A000444A102110462426D370D56082F801E018
:1006B0009770C2F80480C2F808C0167003F0CEFC30
:1006C000324804F0FDFF23681193119D03F0A6FD4D
:1006D00048B923681093109B5B1BB3F57A7FF5D361
:1006E00014B0BDE8F08103F0A9FDC1B2264800F0C6
:1006F00079FDEBE72E49304D0D60002AC9D0D6F8C0
:100700000080D0F800C00D68CAE7264E2B48306044
:10071000B6E72348DFF8ACC007789CF800E0013763
:10072000FFB200233C2F0B701A46077019461D4676
:100730001E469BD10EF1010E5FFA8EFE00278CF84B
:1007400000E0077092E72B6001E701210B4800F001
:10075000ABFE01211A4804F07FFD23680F930F9927
:100760000A4800230A2204F0BBFF044800F0E0FE20
:10077000024800F019FFE3E61016FF1F4C13FF1F9D
:100780003C13FF1F4813FF1F5412FF1F8407FF1F56
:1007900014B200004013FF1FCDCCCCCC89888888D0
:1007A0003812FF1F4413FF1F4012FF1F99086444B3
:1007B0003C12FF1F4412FF1FD0D5BA41D0E399412C
:1007C00010B200003813FF1F10B5094C094800F0A3
:1007D000F5F80021201D05F0F5F804F1140001F0F2
:1007E00059F82046044A0549BDE8104006F02ABAE7
:1007F0000412FF1F5412FF1F3007FF1F6D0400007B
:1008000070B5C9B2A0B004465D4801F0FBF80028FD
:1008100000F0998010215B4804F01EFD5A4804F056
:100820004FFF5A49564801F00DFA002840F09480D5
:100830002B21574804F010FD534804F041FF18A83D
:100840001323524A4E4901F089F920AA1A9B12F843
:10085000140D9DF8641084F82000E361217604F102
:10086000210304F12E0012F8011F03F8011B984226
:10087000F9D11F9B236318A804F1140501F018F89F
:10088000284601F017F8002864D06846414905F071
:1008900099F8694608A805F0A9F804A83E4905F0AA
:1008A00091F804A908A805F0F1F83C4906460CA8FF
:1008B00005F088F80CA9304605F0E8F838490646F6
:1008C00010A805F07FF810A9304605F0DFF835498B
:1008D000064614A805F076F814A9304605F0D6F8B7
:1008E0003149064618A805F06DF818A9304605F0FC
:1008F000CDF804340146204605F088F818A805F024
:1009000021F814A805F01EF810A805F01BF80CA893
:1009100005F018F804A805F015F808A805F012F875
:10092000684605F00FF82146284604F0A3FE284645
:1009300004F0C6FE2C211D4804F08EFC124804F081
:10094000BFFE20B070BD1B21194804F085FC0E4885
:1009500004F0B6FE20B070BD2821164804F07CFCDF
:10096000094804F0ADFE1721134804F075FC064851
:1009700004F0A6FE0549024801F072F95FE700BFE6
:100980009413FF1F24B200008407FF1F38B2000039
:1009900088B20000B4B20000BCB20000C4B20000D3
:1009A000CCB20000D8B20000E4B20000F0B2000007
:1009B00020B3000044B2000070B2000070B4002206
:1009C0004FF0FF3412490460FF260625A0F840606E
:1009D00080F8655084634464C464826080F8542065
:1009E00080F8552080F8662080F8672080F868201D
:1009F000C0F8D820A0F8DC20A0F8DE2080F856202F
:100A00000161816101628162016370BC704700BF56
:100A1000FFC99A3B30B490F856502D2D0CBF90F87A
:100A200057202A46A2F1300314BF00F1560100F10D
:100A30005701092B2DD80846002303EB830302EB53
:100A4000430310F8012FA2F13004092CA3F1300365
:100A5000F3D9642000FB03F011F8012FA2F1300458
:100A6000092CF9D92E2A04D02D2D00D1404230BCBA
:100A700070474B78303BDAB2092AF5D88A78303A99
:100A800003EB8303D1B200EB4300092998BF801820
:100A9000EAE70020E6E700BF70B490F85620A2F124
:100AA0003003092B00F1560147D80846002303EB19
:100AB000830302EB430310F8012FA2F13004092C49
:100AC000A3F13003F3D91E4A1E48A2FB0342520988
:100AD000642404FB123200FB02F411F8012FA2F18E
:100AE00030000928F9D9164D1748A5FB03535B09B7
:100AF00000FB03F32E2A07D014480334A0FB042084
:100B000003EB900070BC70474E78A6F13005EAB256
:100B1000092A01F10101EFD80D4842F2107211F8D3
:100B2000016F02FB0544A6F13005A0FB0262EEB2A4
:100B3000092E4FEAD202F2D9DEE700231C46D9E79C
:100B40001F85EB51A086010040420F00ABAAAAAA64
:100B5000CDCCCCCCF0B590F8555083B035B390F8EF
:100B60005630A3F14102052A40F2B481A3F161029B
:100B7000052A94BF573B303B90F85720A2F1410122
:100B80001B010529DBB200F2A781373A134490F824
:100B90005420DBB29A4200F0AC81B0F8DE30013371
:100BA000A0F8DE300025284603B0F0BD90F866308E
:100BB000CBB990F8563000F1560673B1472B40F090
:100BC000DF82E449324604E011F8014F9C4240F0D4
:100BD000B48112F8013F002BF6D1012380F8653073
:100BE000284603B0F0BD90F865100629DAD090F8D9
:100BF0005620002AD6D043EA4113013B0446B22BCB
:100C0000D1D801A151F823F0C90F0000BB1000009A
:100C1000AD100000A510000097100000EB100000C0
:100C2000DD100000D5100000CD100000A70B000063
:100C3000A70B0000A70B0000A70B0000A70B0000EC
:100C4000A70B0000A70B0000A70B0000A70B0000DC
:100C5000A70B0000A70B0000A70B0000A70B0000CC
:100C6000A70B0000A70B0000A70B0000A70B0000BC
:100C7000A70B0000A70B0000A70B0000A70B0000AC
:100C8000A70B0000A70B0000C90F00000111000016
:100C9000BB100000AD100000A51000009710000070
:100CA000F91000008F10000063100000A70B000077
:100CB000A70B0000A70B0000A70B0000A70B00006C
:100CC000A70B0000A70B0000A70B0000A70B00005C
:100CD000A70B0000A70B0000A70B0000A70B00004C
:100CE000A70B0000A70B0000A70B0000A70B00003C
:100CF000A70B0000A70B0000A70B0000A70B00002C
:100D0000A70B0000A70B0000C90F0000BB100000DC
:100D1000AD100000A5100000971000005510000055
:100D2000DD100000A70B0000A70B0000A70B0000C0
:100D3000A70B0000A70B0000A70B0000A70B0000EB
:100D4000A70B0000A70B0000A70B0000A70B0000DB
:100D5000A70B0000A70B0000A70B0000A70B0000CB
:100D6000A70B0000A70B0000A70B0000A70B0000BB
:100D7000A70B0000A70B0000A70B0000A70B0000AB
:100D8000A70B0000A70B0000A70B0000A70B00009B
:100D9000A70B0000A70B0000A70B0000A70B00008B
:100DA000A70B0000A70B0000A70B0000A70B00007B
:100DB000A70B0000A70B0000A70B0000A70B00006B
:100DC000A70B0000A70B0000A70B0000A70B00005B
:100DD000A70B0000A70B0000A70B0000A70B00004B
:100DE000A70B0000A70B0000A70B0000A70B00003B
:100DF000A70B0000A70B0000A70B0000A70B00002B
:100E0000A70B0000A70B0000A70B0000E70F0000D6
:100E1000A70B0000DB0F0000A70B0000A70B0000D2
:100E20001F100000DB0F0000A70B0000A70B000045
:100E30001F100000DB0F0000A70B0000A70B000035
:100E40001F100000DB0F0000A70B0000A70B000025
:100E50001F100000A70B0000A70B0000A70B00004D
:100E6000A70B0000A70B0000A70B0000A70B0000BA
:100E7000A70B0000A70B0000A70B0000A70B0000AA
:100E8000A70B0000A70B0000A70B0000E70F000056
:100E9000A70B0000DB0F0000A70B0000A70B000052
:100EA0001F100000DB0F0000A70B0000A70B0000C5
:100EB0001F100000DB0F0000A70B0000A70B0000B5
:100EC0001F100000DB0F0000A70B0000A70B0000A5
:100ED0001F100000373B4FE6A2F16101052994BFC6
:100EE000573A303A134490F85420DBB29A427FF4D8
:100EF00054AE90F8653090F86850012B49D0002D21
:100F00003FF450AEB0F8DC20846C016D44640132D3
:100F1000A0F8DC20C164002B7FF445AE476A466828
:100F20004469C169B0F84220C36B0762066004617E
:100F30008161A0F84020836335E60749324603E02B
:100F400011F8014F9C4209D112F8013F002BF7D153
:100F500043E600BF6CB3000074B300009A49324608
:100F600012F8013F002B3FF439AE11F8014F9C42BB
:100F7000F6D09649324604E011F8014F9C4240F009
:100F8000C78012F8013F002BF6D1022380F86530AC
:100F900009E64768C26807608260002D3FF402AE30
:100FA000B0F8DC30866C046D416907600133C769B5
:100FB0008260A0F8DC30C26A436B4664C46401619D
:100FC000876182620363EEE5FFF724FD804B60607A
:100FD0001B680093009BA364E5E5563005F038FEDE
:100FE000C4F8D000DFE5563005F032FE013810F0CD
:100FF000FF0294F865600BD1042E00F0D88004F154
:101000009C0304F1CC00114643F8041F8342FBD13A
:10101000052E00F0C780920084F8D420C2E5563037
:1010200005F016FE10F0FF0F00F0AE8094F8663069
:1010300094F8D420D4F8D010DE1F48BF1E1F02EB56
:10104000A602430003F4FF731C3243EA012344F871
:101050002230A8E500F156010522693006F05EFD58
:10106000A1E5A2F13003092B00F156014FF0000376
:101070000BD803EB830302EB430311F8012FA2F11A
:1010800030000928A3F13003F3D9E3608BE5FFF7C3
:10109000C1FC606387E5572A7FF484ADC3695B4276
:1010A000C36180E5FFF7F8FCE0617CE5532A7FF43B
:1010B00079AD43695B42436175E5FFF7EDFC444B55
:1010C00060611B680193019B23656CE5FFF7A2FC3F
:1010D000606268E5FFF79EFCE06364E5563005F06A
:1010E000B7FDC0B2A4F842005DE5302A94BF0022EB
:1010F000012280F8682056E5FFF78CFCE06252E59B
:10110000A2F14102B2FA82F2520980F868204AE55F
:101110003049324603E011F8014F9C4207D112F8E2
:10112000013F002BF7D1032380F865303BE52A49C6
:10113000324603E011F8014F9C4204D112F8013FFE
:10114000002BF7D1EFE72549324603E011F8014FB4
:101150009C4207D112F8013F002BF7D1042380F8FD
:10116000653020E51E4A03E012F8011F994207D1BD
:1011700016F8013F002BF7D1052380F8653012E502
:10118000062380F865300EE594F8662094F8D43094
:10119000D11F48BF111F03EBA1031C33002244F8E9
:1011A000232000E5D31C9B0084F8D430FBE404F139
:1011B0006C0304F19C0043F8042F83424FF00001BC
:1011C000F9D184F8D410EEE47CB3000084B30000BD
:1011D0001016FF1F8CB3000094B300009CB30000F6
:1011E000A4B30000D0F8D82038B503460132A1F1ED
:1011F0000A00C3F8D82022283FD8DFE800F0183EC4
:101200003E183E3E3E3E3E3E3E3E3E3E3E3E3E3E24
:101210003E3E3E3E3E3E3E3E2F3E3E3E3E3E183E23
:10122000120093F8542082F02C0283F854201D46BB
:1012300093F867300E2B0C4632D9002095F86630B3
:10124000A4F12A0101330022B1FA81F1490985F89C
:10125000663085F8672085F8551038BD00200622D5
:1012600083F8670083F8660083F8540083F86520EC
:1012700083F8550083F8680038BD93F867200D2A7D
:1012800005D89818013283F8672080F8561093F833
:10129000550068B993F85420514083F8541038BD74
:1012A0002B44002283F856202846FFF753FCC5E75D
:1012B000002038BD70B40469856983B043B1C06C47
:1012C000461C04D0134E36680196019E301A1860F1
:1012D000114B9C4214D007EE904A07EE105ADFEDF6
:1012E0000F6AF8EEE77AB8EEC77A87EEA66AC7EE1D
:1012F000267A81ED006AC2ED007A03B070BC7047B7
:10130000DFED077AC1ED007AC2ED007A03B070BC60
:10131000704700BF1016FF1FFFC99A3B0024744995
:1013200000007A442DE9F04383B08468DDF838800A
:101330000568DDF828C0DDF82CE00C9F0D9EB8F1A3
:10134000000F0FD0406CB0F1FF3F09D0DFF8CC9018
:10135000D9F80090CDF80490DDF80490C0EB0900B6
:10136000C8F8000079B12A48A0FB048040094FF07A
:10137000640808FB1040512840F26C7838BF4FF4E5
:10138000FA68404408605AB12149A1FB04084FEAB9
:101390005818A1FB08014809642101FB1081117054
:1013A00023B11C4AA2FB0424640B1C70BCF1000F87
:1013B00005D0194BA3FB05239B0C8CF80030BEF124
:1013C000000F0CD0134B124AA3FB05135B0BA2FBBF
:1013D00003125209642101FB12338EF8003057B119
:1013E0000B4BA3FB05214909A3FB01235A096423E5
:1013F00003FB12133B703EB1054BA3FB05235B09B6
:10140000642202FB1355357003B0BDE8F08300BFC2
:101410001F85EB515917B7D183DE1B431016FF1FF1
:10142000036A074A934208D007EE903A9FED057A87
:10143000F8EEE77A87EE870A70479FED030A704758
:10144000FFC99A3B0000C84200247449074882B093
:1014500003680193019A114401E0994204D303689F
:101460000093009B9A42F8D902B070471016FF1FF4
:10147000034B82B01B680193019802B0704700BF14
:101480001016FF1F10B4074B82681B68016183B000
:1014900000240193019B4461C260836003B05DF846
:1014A000044B70471016FF1F2DE9F0411B4B1C4CDD
:1014B0001B681C4E82B00546019388461A48019F5E
:1014C000062103F0C9FE414600230A22204604F00B
:1014D00007F90321154803F0BFFE394600230A220D
:1014E000204604F0FDF83046012103F0B5FEA9685E
:1014F0000023791A0A22204604F0F2F8304601212E
:1015000003F0AAFEEB68A9682046C91A0A22002344
:1015100004F0E6F802B0BDE8F08100BF1016FF1F2E
:101520008407FF1FF4B30000E8B30000F0B300002D
:1015300008B50621034803F08FFE0348BDE80840C4
:1015400004F0BEB8F8B300008407FF1F034B82B05D
:101550001B680193019B836002B070471016FF1F48
:1015600010B4104A85B0A1B9136800934168009B7C
:10157000591A31290DD813680293029C04F13203E1
:10158000591A01E0994204D313680193019B9C42CC
:10159000F8D913680393039B4360012005B05DF8FD
:1015A000044B70471016FF1F704700BF4FF47A704E
:1015B00002F0ACBB00234364436071B1074882B0C2
:1015C00003680193019A114401E0994204D303682E
:1015D0000093009B9A42F8D902B070471016FF1F83
:1015E00030B5134C85B023680393039B43600D46CD
:1015F0001048062103F030FE00230A2229460E4837
:1016000004F06EF806210D4803F026FE0A4804F0A7
:1016100057F823680293029A02F1320101E09942DD
:1016200004D323680193019B9A42F8D905B030BDD9
:101630001016FF1F00B400008407FF1F08B400004D
:1016400038B5037E0BB9632038BD0D46044603F060
:10165000D9FD10F0FF0F01D1652038BD03F0D2FD98
:1016600010F0FF0FF8D003F091FDC0B2A0F15803C5
:101670001E2BF3D801A252F823F000BF051700007B
:101680005D1600005D1600005D1600005D1600008E
:101690005D1600005D1600005D1600005D1600007E
:1016A0005D1600005D160000F91600005D160000D2
:1016B0005D1600005D1600005D1600004716000074
:1016C0005D1600005D1600005D1600005D1600004E
:1016D0005D1600005D1600005D1600005D1600003E
:1016E000471600005D1600005D1600005D16000044
:1016F0005D1600004916000020462946FFF770FFDE
:10170000632038BD00232376632038BD70B50546BD
:1017100082B01646C9B101230D4C0376002128463C
:10172000FFF78EFF632810D023680193019A511CA4
:1017300023680093009B9A42F0D89942F8D2002186
:101740002846FFF77DFF6328EED12E7602B070BDEC
:101750001016FF1F034B00229A60DA601A615A616B
:10176000704700BF4C13FF1F00207047704700BF39
:1017700010B582B002AB026803F8011D5468194627
:101780000122A04702B010BDC06938B18369C068AA
:1017900047F6FF72181A904228BF1046704700BFE4
:1017A000C36910B504463BB100201871E06901F02F
:1017B0003DFDE3691B791BB101232371002010BD9E
:1017C00010BD00BFC06978B100B583B001220DF132
:1017D000070101F0C7FA01280CBF9DF807004FF080
:1017E000FF3003B05DF804FB4FF0FF30704700BFDF
:1017F000C369C3B110B582B00446012218460DF189
:10180000070101F0AFFA012803D04FF0FF3002B01A
:1018100010BDE0699DF80740C168013901F05EFB29
:10182000204602B010BD1846704700BFC06908B11D
:1018300001F086BB704700BF2DE9F04105464FF42B
:101840007A731348AB60002328602B712B7324201C
:101850000C46904605F038FAE861B0B1064604F14E
:10186000200E20686168A268E36837460FC710340D
:1018700074453E46F5D12068386041460C2205F19A
:101880000D0006F04BF900236B762846BDE8F08189
:1018900060B400004FF47A72044982600022016053
:1018A00002710273C2614273704700BF60B40000EE
:1018B000704700BFC06918B18079003018BF01209F
:1018C000704700BF30B58BB000240A460A4D8DF832
:1018D00008400146012301A88DF80A40019501F056
:1018E00063FCA04218BF012402D001A801F0C2F994
:1018F00020460BB030BD00BF88B400000AB90120FB
:10190000704708B501F07AFC003018BF012008BD0F
:10191000F0B50E68835D2F2B08BF0136841902F1E4
:10192000FF3E002523782F2B274604F1010408D021
:101930003BB101350C2D06F101060EF8013FF1D146
:101940008719002353553B782F2B04BF0136871985
:101950000E603878003018BF0120F0BD2DE9F04F3F
:1019600099B08846264D069500218DF81C108346B7
:101970009246994644468DF81E108DF840108DF819
:10198000421001910F9506AE05E001F073F9FDB12B
:10199000234634461E4602AA01A95846FFF7B8FF5F
:1019A00080F00102D2B24B4602A905462046D0473C
:1019B00021460746012302AA70B13046ADB101F0BD
:1019C000F3FB444505462046DFD10DB10FACDFE700
:1019D000002019B0BDE8F08F4445F9D0204601F051
:1019E00049F9384619B0BDE8F08F444506D0204685
:1019F00001F040F9012019B0BDE8F08F0120E8E7BF
:101A000088B40000FE2938B5054617D00A460121E2
:101A100000F01EFE03460BB9002038BD2C1D2046E9
:101A20000122294601F0F2FE98B1214605F12C0071
:101A300001F070F9003018BF012038BD017000F0CE
:101A400021FA044600F00CFAB4FA84F35B09A8709A
:101A5000E1E702462946204601F0D8FE0028E4D1FD
:101A6000002038BD2DE9F04F99B04FF00008DFF8A5
:101A7000E8A08DF81C808146043106A893460193A6
:101A80008DF81E808DF840808DF84280CDF818A02A
:101A9000CDF83CA001F03EF906AE5D460FAF2F2118
:101AA000284605F007FF441BE4B2294608B32B780B
:101AB0002F2B02A81BD00C2C28BF0C24224606F08A
:101AC0002DF818AB2344384603F8588C01F0D2F8AF
:101AD000012302AA3146384601F066FB88B330463E
:101AE00001F0C8F8334625443E461F46D7E7013586
:101AF000D5E7019831797279B379B468377DCBEB4A
:101B000005050560F068356989F8041089F8052035
:101B1000B16989F80630F269336AC9F80C004846A1
:101B2000C9F800A0C9F80840C9F8105089F8147025
:101B3000C9F81810C9F81C20C9F8203019B0BDE840
:101B4000F08F89F8040089F806004846C9F800A01B
:101B500019B0BDE8F08F00BF88B40000F0B59DB0AB
:101B600005461F4601A86B461446FFF77BFF009A07
:101B7000A35C1444002B42D09DF80A202F4E0A96F5
:101B800000238DF82C308DF82E30002A31D00AA891
:101B90003B46224601A901F007FB50B301A801F022
:101BA00069F817F0060F43D19DF82C700C9B9DF837
:101BB0002DE0139622469DF82E408DF850708DF83A
:101BC000524015930D990E989DF83C70109E119CF3
:101BD000129B8DF851E01691179013A928468DF8A5
:101BE000607019961A941B93FFF726FE28461DB0C5
:101BF000F0BD2846FFF74EFE28461DB0F0BD9DF80B
:101C000008700E4E9DF809409DF80A30039A8DF831
:101C1000507013968DF851408DF8523015920499FA
:101C200005989DF81870079E089C099B044AD2E706
:101C30000AA8109901F052F9B6E700BF88B4000075
:101C40007CB4000010B40C46002300F12C01034AC0
:101C500020465DF8044BFFF781BE00BFC5180000A9
:101C600010B40C46002300F12C01034A20465DF815
:101C7000044BFFF773BE00BFFD180000064B074A78
:101C8000DA620221002259609A7083F8242083F8D6
:101C9000302083F8322070479413FF1F88B400006F
:101CA0004FF47A72264B02FB00F09842F0B440D811
:101CB000244D0821012252001301B5FBF3F3984291
:101CC000204C32D20139F6D1B4FBF2F453081F0292
:101CD000A04232D21B4E51000123B6FBF1F4A042C8
:101CE00003F1010511441ED2102D2B46F5D1F0222F
:101CF000154C1649236823F008032360206820F45C
:101D00007F2020F47F6040F4602040EA0703134303
:101D100023600B681B07FCD50B4A136843F00803CC
:101D20001360F0BC70471A01E2E7B4FBF2F4D7018C
:101D3000CEE7044C00270122CAE70022D8E700BF03
:101D40004FA9AB000095BA0A2C100B4024100B4091
:101D50002049214A0B6843F080030B601146136849
:101D6000DB07FCD40B689B07F9D41C4B30B44FF055
:101D70008072184D186000E0A2B12968184B154C0C
:101D80000B40013A002BF7D062B1012B0AD1236836
:101D900013F0800F23680FD043F00113236003205A
:101DA00030BC70470B4A136843F4702343F00103BF
:101DB0001360012030BC704713F48030236804D0D6
:101DC00043F0011323600520F4E743F0010323608F
:101DD000F0E700BF30100B4024100B400C100B40FC
:101DE00001000E0070B50D4D0D480E4E00232B6006
:101DF000FFF7AEFF40F2E73403463268520701D5E1
:101E000007480BB1184670BD2B60FFF7A1FF013CDE
:101E10000346F2D1002808BF052070BD08100B4012
:101E20000000DB0C24100B4070B5094C0023054664
:101E300023600848FFF78CFF00B170BD064E0748CD
:101E400033682560FFF784FF0028F6D1336870BD42
:101E500008100B4000001A3710100B400000022938
:101E6000074B1A784AB99A782AB15B78002B0CBFD5
:101E7000022003207047012070470020704700BFF8
:101E8000E813FF1FAA4AAB491368AB4843F040630D
:101E90002DE9F04713600B68DFF804E3A74FA84E65
:101EA000A84DA94C02F5232243F400330B6002F63F
:101EB0002C0240F203130021CEF800303B60316069
:101EC0002B6023600360136843F0807343F4004386
:101ED00013601368DD01FCD44FF4C870FFF7E0FE17
:101EE0009A4A13689C07FCD1944FDFF8B4E29449F6
:101EF000954D914C964A934E964840F24343CEF806
:101F000000303B604FF488670F604FF481313360DD
:101F10002B602360116003688F49904D23F03803D4
:101F200004F5C82443F02803036020340B680B60D9
:101F3000283240F2DC512560136843F000631360DF
:101F400013681801FCD40139F6D1834A7F4813681D
:101F500043F0800313600368DA0308D4804B022047
:101F600059709970187059609960BDE8F0877C4C81
:101F70007C4B7D4E21706170A17008461960316004
:101F80006160A160FFF7E4FE70B9784D78482B6876
:101F90004FF4D5733360FFF7DBFE48B92B682B682D
:101FA000B3F5D57F00F0C18001202070BDE8F08737
:101FB0000528F9D10020FFF737FF0028F4D16B4B3B
:101FC0001A6812F4401F19D06278DFF8D881694F7F
:101FD000002A05461E4608BF4FF440173846FFF753
:101FE00023FF0135614B002840F0F1803268002A60
:101FF000C0F2E4804545F1D1002363705A4E5E483B
:1020000000233360FFF7A4FE03460028CCD1574DD0
:102010005A482A683360FFF79BFE0028C4D12B681A
:102020002B6857484E4D1B0C1B0433606360FFF751
:102030008FFE0028B8D1534B53491A68120EEA702C
:102040000A6812F4400F40F0AF8019684F481B68CF
:10205000026800689B0203F4406343EA9253C0F3B2
:10206000C2105A1CC1F30321831C093902FA03F37D
:102070008B40AB603C4E636833604548384FFFF798
:1020800067FE002890D1394D42482B684FF4007309
:102090003360FFF75DFE002886D17B682A683E48E2
:1020A0003360FFF755FE00287FF47EAF02232A68D5
:1020B0003A483360FFF74CFE00287FF475AF254B9C
:1020C0002A681A68DFF8D8A0DFF87090DFF870800F
:1020D000194C22F006021A601A68A6F5C726A6F265
:1020E000FC76A5F5C82542F002021A6040F20313FF
:1020F000CAF80030C9F80030C8F80000336046F272
:10210000A8102B602360FFF7CBFD40F243434FF450
:102110008862CAF80030C9F80030C8F8002033607F
:102120002B6023603878BDE8F0870123637041E7B6
:1021300000D800403080044014D0044004D0044053
:1021400008D004400CD0044010D0044024100B40B0
:1021500004100B4028100B4030100B40BB007F11C7
:10216000E813FF1F38100B4008100B4010100B40F5
:1021700000001A08000030400000090200001A03A5
:102180000000090918100B401C100B4014100B40E4
:1021900000001B0700001A1000001A3700001A0682
:1021A00000D00440A086010001220A4BAA701B68DF
:1021B000C3F3152313449B02AB605BE7064A9542C9
:1021C0003FF41AAF1B685B007FF516AF16E70120DE
:1021D000BDE8F08714100B40A0860100F8B5384B1D
:1021E0001A780AB10320F8BD5B78064603B94902A4
:1021F000344D354C354B36484FF6FF774FF481322E
:102200002F6021601A60FFF7A3FD0028EBD1314B4E
:1022100031491B681C3406F1400206F510702B682A
:10222000284F43F0200613F4E00F2E603ED12368C0
:102230001E05FCD50B6842F8403C0B6842F83C3C5C
:102240000B6842F8383C0B6842F8343C0B6842F8A3
:10225000303C0B6842F82C3C0B6842F8283C0B6879
:1022600042F8243C0B6842F8203C0B6842F81C3CC6
:102270000B6842F8183C0B6842F8143C0B6842F8B3
:10228000103C0B6842F80C3C0B6842F8083C0B68A9
:1022900042F8043C40328242C1D1002009490B6817
:1022A000084A9B07FBD50D4B1360F8BD43F4E003D0
:1022B00043F020033B60FFF795FD0120EEE700BFF0
:1022C000E813FF1F30100B4008100B4004100B40A8
:1022D00010003A1110100B4020100B40220000019A
:1022E000F8B52B4B1A780AB10320F8BD5B78044689
:1022F00003B94902274D28482A68284B2A604FF421
:102300008132016026481A60FFF722FD0028ECD1D7
:10231000244B254E1B68294604F500770B681D4A9F
:10232000D806FBD52B6813F4E00F1AD104F1400254
:1023300054F8043B3360A242FAD10B68DFF854E052
:1023400043F010030B600B6813F4E00013D19742C5
:10235000E4D110490B680F4A9B07FBD5134B136060
:10236000F8BD136843F4E00343F010031360FFF774
:1023700039FD0120EDE7DEF8003043F4E00343F0DF
:102380001003CEF80030FFF72DFD0120E1E700BF7C
:10239000E813FF1F30100B4008100B4004100B40D7
:1023A00000003A1810100B4020100B4012000001E2
:1023B000052822D8DFE800F003030F151B09124B94
:1023C000124A1A60124801F04BBB0F4B114A1A60B7
:1023D0000F4801F045BB0C4B0F4A1A600C4801F046
:1023E0003FBB094B0D4A1A60094801F039BB064B47
:1023F0000B4A1A60064801F033BB034B094A1A60C6
:10240000034801F02DBB00BFF813FF1F000001B807
:102410003C07FF1F0430003801100038032000384B
:10242000010002380650013810B50121007801F092
:1024300061FC114A1378C3B11049CB7A00241846C5
:10244000147093B1DA0703D50D4AC86910601846B5
:102450009C0703D50B4B0A6AC87A1A60420705D459
:10246000030702D5084B8A6A1A6010BD074B4A6AF7
:10247000C87A1A60F4E700BFFC13FF1F3C07FF1F78
:1024800000E100E004E100E00CE100E008E100E030
:10249000234B1A781AB10078002101F02BBC70B4DC
:1024A000204A2149D47A096801251D70002C26D0C4
:1024B00072B6D47AE607234606D51C4DD3682E683B
:1024C0003340D3612B602346A50706D5184D146908
:1024D0002E68D37A344014622C605C0706D5154D03
:1024E00054692E68D37A344054622C601B0705D59A
:1024F000114C936925682B409362236062B6136880
:10250000DA688A4207D00D4C1C600D4AD96041F050
:1025100080441C611A600078002170BC01F0EABBA5
:10252000FC13FF1F3C07FF1FF813FF1F80E100E0B3
:1025300084E100E088E100E08CE100E001403F0040
:1025400000003F80F0B41248124A036882B0164679
:102550000093009F4FF00045FF24136843F480630D
:102560001360D5625463D36A002BFCDAB36BDBB221
:10257000FF2B09D003680193019BDB1B8B42ECD33B
:10258000002002B0F0BC7047012002B0F0BC7047E0
:102590001016FF1F00C00240F8B50D464FF49671AB
:1025A00016460446FFF7CEFF284B1A684FF000404E
:1025B00042F4806245F040011A60D8621A465963BD
:1025C000D36A002BFCDA214918204FF000470A6833
:1025D00026FA00F342F48062DBB20A60CF624B63FA
:1025E000CB6A002BFCDA083810F1080FEFD155B395
:1025F000082D0CBF8721FF21144B1A684FF00040B3
:1026000042F480621A60D8621A465963D36A002B7A
:10261000FCDA0E4A002716464FF00045FF211368EA
:1026200043F480631360D5625163D36A002BFCDAF4
:10263000B36BD8B21B06607000D4F8BD0137B7F594
:10264000807FECD1F8BD9521D6E700BF00C00240E5
:102650002DE9F04300239D4E027085B083703368EE
:1026600001930546884610460121019F01F042FB77
:102670002878012101F044FB2878012101F03AFB80
:10268000934A136843F4805313600620FFF790FECB
:10269000DFF870E28F4B9EF80BC01A68BCF1000F98
:1026A0002CD072B69EF80B10C8070B4608D58A4886
:1026B000DEF80C3004682340CEF81C3003600B4673
:1026C0008C0709D58548DEF8101004689EF80B3099
:1026D0002140CEF820100160580709D58048DEF867
:1026E000141004689EF80B302140CEF824100160CD
:1026F000190700F1AB8062B69EF80BC0DEF800301F
:10270000D968914207D0774818607749DA6042F07B
:10271000804018611960754A0A244FF00040FF217B
:10272000136843F480631360D0625163D36A002B53
:10273000FCDA013C14F0FF04F2D1BCF1000F21D00F
:102740001CF0010F05D06A4BDEF81C209EF80BC070
:102750001A601CF0020F05D0664BDEF820209EF8B0
:102760000BC01A601CF0040F05D0634BDEF8242068
:102770009EF80BC01A601CF0080F03D05F4BDEF808
:1027800028201A602846FFF783FE06E0336802938C
:10279000029BDB1BB3F5FA6F51D800221146284685
:1027A000FFF7FAFE012881466870EFD14FF4D57229
:1027B00008212846FFF7F0FE430726D585F802904A
:1027C0004FF0000906E033680393039BDB1BB3F56E
:1027D000FA6F34D8002237212846FFF7DDFE4A463B
:1027E00029212846FFF7D8FE68700028EBD1AB7886
:1027F000022B39D02846FFF717FE4046FFF7D8FDD9
:102800000124204605B0BDE8F083384A04219446EF
:102810004FF0004EFF20136843F480631360C2F84A
:102820002CE05063D36A002BFCDADCF83830013935
:10283000DBB211F0FF016B70EDD1AA2B0FD028464F
:10284000FFF7F2FD204605B0BDE8F0832C49DEF825
:10285000183008680340CEF828300B604BE702239D
:10286000AB704FF08049B5E702463A212846FFF7A2
:1028700093FE0028E3D11D4B1A684FF0004442F448
:102880008062FF201A601946DC625863CB6A174ADF
:10289000002BFBDA936B154A03F0C003C02B04BF77
:1028A0000323AB70032116464FF00044FF2013684A
:1028B00043F480631360D4625063D36A002BFCDA64
:1028C000013911F0FF01B36BF1D193E71016FF1F2F
:1028D0003C800440F813FF1F80E100E084E100E049
:1028E00088E100E001403F0000003F8000C002405E
:1028F00000E100E004E100E008E100E00CE100E0BC
:102900008CE100E03C07FF1FF0B41549154A0B6845
:1029100082B016460093009F4FF00045FF241368D5
:1029200043F480631360D5625463D36A002BFCDAEE
:10293000B36BDBB2FF2B43700AD10B680193019B91
:10294000DB1BB3F5967FEAD9002002B0F0BC7047DC
:10295000A3F1FE00B0FA80F0400902B0F0BC70476D
:102960001016FF1F00C00240F8B58378032B0E46F7
:10297000044618BF4E021546FFF78AFD3246112164
:102980002046FFF709FE18B92046FFF7BDFF20B922
:102990002046FFF749FD0020F8BD204B2049214A81
:1029A0001A608E4659631A4659631E46596305F5E7
:1029B000FD70A91C05F5FE77D36A13F0F00FFBD06C
:1029C000C6F834E0B36B01F8013C1B1201F8023C7D
:1029D00002318F42F0D105F50075A8420DD20F4AA1
:1029E0001646D36A13F0F00FFBD0B36B191200F840
:1029F000021BA84200F8013CF3D3084B0949084ADE
:102A0000196019465A63CB6A044A13F0F00FFAD0E2
:102A10002046936BFFF708FD0120F8BD00C002407F
:102A2000FFFF009000041F80F0B4314E33684FF078
:102A3000004743F4806333603D46F7623446716378
:102A40003346511C02F20127E26A002AFCDA1A68B6
:102A500011F8016C42F480621A60DD625E63E26A22
:102A6000002AFCDA1A6811F8026B42F480628F4285
:102A70001A60DD625E63E7D11D49CA6A1C4B002AF9
:102A8000FBDA1A684FF0004542F48062FF241A60B6
:102A90001946DD625C63CB6A154A002BFBDA1368CA
:102AA0004FF0004543F48063FF2413601146D56264
:102AB0005463CB6A0E4A002BFBDA13684FF00045D3
:102AC00043F48063FF2413601146D5625463CB6ADC
:102AD000074A002BFBDA936BDBB203F01F02437053
:102AE000A2F10500B0FA80F04009F0BC704700BFC9
:102AF00000C0024070B5044671B18378032B0D46C7
:102B000018BF4D021646FFF7C3FC2A46182120467F
:102B1000FFF742FD054620B12046FFF785FC002067
:102B200070BD3246FE212046FFF77EFF0028F3D01D
:102B30004FF416712046FFF705FD0028ECD02A4619
:102B40000D212046FFF728FD0028E5D10B4B1A6820
:102B50004FF0004542F48062FF201A601946DD62A2
:102B60005863CB6A054A002BFBDA936B13F0FF0F17
:102B7000D2D12046FFF758FC012070BD00C00240B2
:102B8000014B024A1A607047F813FF1F03200038F8
:102B900038B590F90530002B03DBBDE8384000F074
:102BA00049BC04460121006900F084FCF8B1257D90
:102BB000104B13EB45151AD0A3790F4A012B9CBF7C
:102BC000A369EB61E36912686B831B0CAB8232B1C2
:102BD00005F1160105F1180090472B8B6B82637984
:102BE00003F07F036371BDE8384000F023BC002090
:102BF00038BD00BF0C14FF1F0014FF1F10B500F1FB
:102C0000080204460121006A00F048FD50B1E36962
:102C10003BB96379A268E26163F07F0363710120CD
:102C200010BD012010BD00BF70B50646FFF7E6FFDE
:102C300098B1326AB568117C53691479023D8D40B0
:102C4000013B74B11D4402E014F0FF0407D0601989
:102C500000F0A0FC013C0028F6D1002070BD336AD2
:102C6000197CB0694FF4007202FA01F30344B361B6
:102C7000012070BD82790AB90020704710B5044662
:102C8000FFF786FF18B10023A371012010BD0020BB
:102C900010BD00BF70B44B1E01F10A04202203F8DE
:102CA000012FA342FBD101380025072610F8014F60
:102CB0002CB32E2C1ED0164A01E09C4217D012F8DD
:102CC000013B002BF9D1AE421FD3A4F121025D2AB2
:102CD0001BD8A4F16102192A05F1010398BF203C19
:102CE0000D44DBB298BFE4B22C701D46DEE7002035
:102CF00070BC70470A2EFAD008250A26D6E70B7852
:102D0000B3F1200018BF0120F2E71846F0E700BF3A
:102D100098B4000038B583793BB991F82020102A87
:102D20000D46044603D0202A10D0002038BD0222D0
:102D300082714A8CC3615301836100230120607159
:102D400023752562A360E360236138BD032383718B
:102D5000496AC16100F11802284600F06FFC0028A2
:102D6000EBD1E2E7837913B94FF0FF3070472DE9DB
:102D7000F04F8B464179C90783B005465BD5C168E2
:102D80008469641A944228BF144626460194002C94
:102D900069D01A46022ADFF8FC903D4FDFF8F88030
:102DA000C1F3080A42D0286A0479013C04EA51249C
:102DB000E4B2BAF1000F62D1002C60D1002956D1E3
:102DC000EA69AA6090F810E04169023A02FA0EF24C
:102DD00021441144CAF500746A79B442A8BF34464C
:102DE00053062DD4B4F5007F2AD00846002100F008
:102DF00061FB00B30AEB090E0EEB040086450BD015
:102E00000BF1FF32734613F8011B02F8011F9842C1
:102E1000F9D1CEEB00008344E968361B2144E96018
:102E200021D0AA79022AC1F3080ABCD12A6A506AC1
:102E300000EB5121CEE74FF0FF3003B0BDE8F08F3B
:102E40003A689142D1D0D8F800000378FE2B18D010
:102E50005A46FFF789FD0028EDD0E968361B21446A
:102E6000A344E960DDD1019803B0BDE8F08F05F11E
:102E70000802A96800F0AAFB0028DCD0286AAA682A
:102E8000A0E75846FFF7AAF9B0FA80F04009E2E758
:102E90003807FF1F0C14FF1F0814FF1F8379012B35
:102EA00017D930B5C36883B001220DF1070104467C
:102EB000C3F34315FFF756FF012802D0002003B0EB
:102EC00030BDE36804481F3300EB4510E36003B0F6
:102ED00030BD0020704700BF0C14FF1FF8B5837988
:102EE00013B182698A4201D20020F8BD022B0F463D
:102EF00005461AD007B32B6AE9681C7C4A1E04F108
:102F000009037C1EDA40DC40A24211D9EB69AB60B8
:102F100005F1080606E0A968286A00F057FB013CA5
:102F20000028E1D03246002CF5D1EF600120F8BD39
:102F30000029EBD0A41AEBE7AF60EF600120F8BDE9
:102F400083790BB1FFF724BE184670478379012BB4
:102F500001D000207047F0B54579AC0783B0024638
:102F60001CD585698D420C4618D3D5B12546D66847
:102F70001446FFF7B3FF88B1B5B9E169206A00F0E4
:102F800017FC58B1E56122E000F012FC30B16FF09F
:102F90007042A168206A00F0F9FBC0B9002003B0BC
:102FA000F0BD184603B0F0BD01AAA168206A00F088
:102FB0000DFB0028F2D0206A0F4B90F82070019989
:102FC0004FF6F872102F08BF13469942DCD363798D
:102FD000A279A56163F07F036371002ADED02046E9
:102FE000FFF7D6FD0028D9D0B5422946204628BF94
:102FF0003146FFF773FFD2E7F8FFFF0F70B51D4BA7
:1030000003EB4116F37A13F0110F02D012F0420FC6
:103010001ED1194B01751B680361738BB18A43EA9A
:103020000141C161F37A13F01803154604460DD12E
:10303000F36983610123837105F00F03002163713C
:103040006B06A160E1600FD4012070BD102B01D090
:10305000002070BD00F11802006A00F0EFFA0028AD
:10306000F6D00423A371E7E72046BDE87040FFF7E0
:103070006DBF00BF0C14FF1F3807FF1F2DE9F0477D
:1030800084B001AF06460C46104639469946FFF714
:1030900001FE78B30022216A316213461546A26010
:1030A000E260DFF8008108E0E52B1CD001460B222E
:1030B000384604F0E7F888B3E368A2699A421DD95C
:1030C0002046C3F3431AFFF7E9FE98B10378002BBB
:1030D000EAD15DB9D8F8003086F814A033610378DE
:1030E00023B10125E8E7002DFBD1F3E709F0120336
:1030F000122B1DD0002004B0BDE8F08709F01203A8
:10310000122BF7D1A5B9A379022BF3D02046FFF7F4
:103110008BFD0028EED0214C357514E009F030030A
:10312000302BE7D04A4651463046FFF767FFE2E7CB
:103130000121306900F0BEF90028DBD0347D174B47
:1031400013EB4414D6D020220021204604F030F99D
:1031500097E80700234603C3114923F8022B0D68A3
:10316000120C1A709DB104F10E0104F11000A84771
:10317000238AE28963822383E28200F05BF90028DC
:10318000B8D04A46317D3046FFF738FFB3E742F604
:1031900021034FF400622382E281EBE70C14FF1F4E
:1031A0000014FF1F3807FF1F10B484791CB10020E2
:1031B0005DF8044B70475DF8044BFFF75FBF00BF3D
:1031C00010B500210446FFF7C1FE08B9002010BD6C
:1031D0000121206900F06EF90028F7D0237D064A0E
:1031E0005B01DA42F2D0E52098540021A171BDE8DC
:1031F000104000F01FB900BF0C14FF1F30B58BB09A
:1032000000240A46084D8DF808400146022301A813
:103210008DF80A400195FFF731FF10B101A8FFF7C3
:10322000CFFF0BB030BD00BF88B400002DE9F04FD8
:103230008B46817985B001290746019205D001238B
:103240003B71002005B0BDE8F08F42799107F6D5BB
:10325000530708D5FC68B9698C4200F0B480FFF7C9
:103260003DFE0028EBD0019BFC68002B4AD0DFF824
:10327000A491DFF8A4A1DDF80480386A0679013E44
:1032800006EA542616F0FF06C4F3080443D1002CC6
:1032900041D1B968002973D1FA69002A00F083800E
:1032A000BA60C4F50075ADB245453AD9057C4169AF
:1032B000023AAA400E4416441FFA88F51CB9F86871
:1032C000BA6990424FD23046012100F0F3F800284D
:1032D000B5D04C4404EB050E74450DD00BF1FF3115
:1032E000621E0EF1FF3611F8010F02F8010F96422F
:1032F000F9D1C4EB0E04A344FC68B8EB05082C44D8
:10330000FC60BAD1BB69A34262D27A79BC6142F057
:1033100080027A7165E0C4F50075ADB24545BA68C2
:10332000C4D8017C4069023A8A400644B5F5007F62
:103330001644C3D1DAF80020964204BF4FF0FF32A2
:10334000CAF800202F4A10680278FE2A314633D08E
:103350005A46FFF7CFFB00283FF471AF0BF5007B17
:103360004FF40075C8E700F065F800283FF467AF38
:103370002549CAF800600A7842F001020A70A8E7FD
:1033800003AA00F023F900283FF45CAF386A1F4B12
:1033900090F82050039A4FF6F871102D18BF194677
:1033A0008A42FFF47DAF3846FFF728FC00283FF43F
:1033B00046AF386ABA6874E75846FEF791FFB0FA2C
:1033C00080F04009C7E7019B002B7FF450AF08E075
:1033D0000F4B7A791B6823B1019B13B142F0800235
:1033E0007A71120709D5BB79002B3FF428AF384614
:1033F000FFF7CEFB00283FF422AF019805B0BDE8EF
:10340000F08F00BF0814FF1F0C16FF1FF8FFFF0FFF
:103410000014FF1F0C14FF1F3807FF1F00B583B0F7
:1034200002AB012203F8011D1946FFF7FFFE03B0AE
:103430005DF804FB70B51A4C23780BB9012070BD00
:10344000184D194B286819680378FE2B17D0174AB6
:10345000FFF750FB88B1164E316819B9002323706D
:10346000012070BD28680378FE2B0FD00F4AFFF7AC
:1034700041FB10B100233360F0E7002070BD0B4822
:10348000FEF72EFFB0FA80F04009E3E70748FEF7A9
:1034900027FFB0FA80F040090028EBD1EDE700BF2C
:1034A0000C16FF1F0814FF1F3807FF1F0C14FF1F07
:1034B0000414FF1F70B5124D2B6883420E4611D0C5
:1034C0000446FFF7B7FF08B9002070BD0D4B186820
:1034D0000378FE2B0CD00C4A2146FFF745FA002852
:1034E000F2D02C60094B197831431970012070BD5E
:1034F00021460548FEF772FEB0FA80F04009EEE77B
:103500003807FF1F0814FF1F0C14FF1F0C16FF1FA6
:10351000F8B590F82030C469102B1A4B05460E46BA
:1035200017461B6816D004EBD1149C4216D106F046
:103530007F06154A42F826701449287E0A78012829
:1035400042F001020A7018D9A968114A0B441360AD
:103550000120F8BD04EB11249C4208D00021204634
:10356000FFF7A8FF50B195F82030102B07D1F6B225
:10357000054A234622F81670DEE70120F8BD2346EF
:10358000D5E700BF3807FF1F0C14FF1F0C16FF1FE5
:103590000414FF1F10B50446FFF74CFF78B1084B29
:1035A000002103F5007203F8011F9342FBD1054A85
:1035B000054913780C6043F001031370012010BD1E
:1035C0000B14FF1F0C16FF1F3807FF1FC3680133C2
:1035D0008B4218D370B590F82030102B154B044651
:1035E00016460D46C0691B680FD000EBD1109842FB
:1035F0000FD105F07F01104B53F8213023F07043B9
:103600003360012070BD0020704700EB112098420C
:1036100007D00021FFF74EFF50B194F82030102B57
:10362000E7D1E9B2044B33F811303360012070BDAB
:10363000002070BD3807FF1F0C14FF1F2DE9F04755
:1036400082B002ADDFF8508045F8041D0446914673
:103650004FF0000A4FF400774FF6F8760CE094F83C
:103660002030227C0199102B14BF4346334607FAC1
:1036700002F29942924408D22A462046FFF7A6FF5A
:103680000028ECD102B0BDE8F0870120C9F800A005
:1036900002B0BDE8F08700BFF8FFFF0F2DE9F04F43
:1036A000176883B06FB301374FF0000AC36803F1A6
:1036B000010813B38B46064691463C46002505E0BB
:1036C0001C461F46F3680135AB4216D9A04538BFEA
:1036D0000224214601AA304638BF2746FFF776FF6D
:1036E000631CD91B48B1019A002AE9D18B4510D03F
:1036F0001C46F3680135AB42E8D8002003B0BDE8B2
:10370000F08FA1F1010ABAFA8AFA07684FEA5A1A49
:10371000CCE7012CF1D9F36801339C42EDD86FF06E
:10372000704221463046FFF7F3FE0028E5D0A7425D
:1037300014D2013C012CE0D9F36801339C42DCD85F
:10374000621C21463046FFF7E3FE0028D5D0A74291
:1037500004F1FF3402D0012CEED1CEE7D9F80010ED
:1037600059B10129C9D9F36801339942C5D83A46FC
:103770003046FFF7CDFE0028BFD0C9F80070BAF17F
:10378000000F01D0013737600120B7E701290CD9BC
:10379000C3680133994210B403D85DF8044BFFF7B6
:1037A000B7BE00205DF8044B70470020704700BF93
:1037B000F0B5022383B00546134F03600C464FF665
:1037C000F8760FE0EB6801339C4216D8FFF7A0FEB5
:1037D00098B195F82030019C102B0CBF33463B4626
:1037E0009C420DD201AA21462846FFF7EFFE214652
:1037F000002210B1012C2846E4D8002003B0F0BD0F
:10380000012003B0F0BD00BFF8FFFF0FF8B53E4B3D
:10381000054619601446DAB1042A01D90020F8BD22
:1038200000210846FFF746FE0028F7D0374B03EB90
:10383000041292F8AE215206F0D11B3403EB0414AB
:10384000D4F80A30632BE9D9D4F80640002CE5D02F
:1038500000212046FFF72EFE0028DFD02B4AB2F8C9
:103860000B30B3F5007FD9D1117C0029D6D0D38994
:10387000002BD3D0567B002ED0D0002329762E717A
:103880002B74012703E009290B462974C6D007FAD7
:1038900003F0B04203F10101F5D1D68A1B4906B904
:1038A0004E6AB2F80EE0AE60A644C5F81CE0B2F86D
:1038B0001110177C6984480106FB07E600F2FF102F
:1038C00006EB60206E626861B2F813100F4E01B90A
:1038D000316A241A0C4424FA03F340F6F4718B4243
:1038E000EB600BD94FF6F4718B4285BFD36A6B62E4
:1038F0001023202385F820300120F8BD0C2385F803
:1039000020300120F8BD00BF0814FF1F0C14FF1F5A
:1039100010B4047F4160022CC26003D05DF8044BF8
:1039200001F09EBD83685DF8044B1847F0B4464B28
:10393000464A986B5C6B01791170454922790A708F
:103940001A6B00790870002A46D05968C9688A4203
:103950003ED82168CC8B240402F1FF3065D4C0F33B
:103960000E00C883C88B80B2C882996B0968C88B67
:10397000000452D4C2F30E00C883C88B002480B266
:1039800012F1FF32C88218BF01221C63596B2E4806
:1039900009680D6800F12C04A54236D00068C4689F
:1039A00014F0804F0C680D6815BF24882478023508
:1039B000013544F000440D604463996B254B09794F
:1039C0001970214912B14A6B12791A70F0BC704714
:1039D000521A1A630122D9E7D86B196805681E4C80
:1039E0000A63CC62CC682D681C4E24F08044032707
:1039F000B542CC6083F82D701FD1037F4260022B4B
:103A0000C2601ED0F0BC01F02BBD016890F82C0004
:103A1000CC6840F000404863CFE7CC8BC2F308008D
:103A200004F47E442043C883A7E7CC8BC0F308008E
:103A300004F47E442043C88394E72B461146F0BC2F
:103A400018478368F0BC18473C07FF1F1F800040E1
:103A50001C8000401B80004000000FFF1139000057
:103A600090E80C00F0B41C6859682568164F174E92
:103A700029432160164D17491760D6601561116002
:103A8000417A154A5C180C3194F82C4053F82150B7
:103A900002EBC40149680D60017A5C1803EB8101F7
:103AA000247ECD6902EBC40149680D60817A581803
:103AB00003EB810390F84000596C02EBC002F0BCAC
:103AC00053681960704700BF01401F0001100038A3
:103AD0000110007800001F803CB5000008B5104CB4
:103AE00008E0236859050DD423681A050FD423680C
:103AF000DB0411D423685803F3D500F019FD2368C3
:103B00005905F1D502F086F923681A05EFD502F0C0
:103B100017FA2368DB04EDD500F0C6FAEAE700BF28
:103B20003480044008B5FFF7D9FF00BF014B1022D5
:103B30001A80704700200540704700BF094908B54A
:103B40000B6830B16A461844A2F50052904202D286
:103B50000860184608BD03F085F80C2303604FF099
:103B6000FF3008BD7C07FF1FEFF3138070B9EFF340
:103B700010836BB9EFF305825AB94FF48070EFF3FD
:103B800011832BB1984228BF184670474FF0FF3081
:103B900070470F2A01D81846F1E7014BD05CEEE7D9
:103BA000F0E300E0084A1378802B01D00020704732
:103BB0000649074B07480860002119701378802BCD
:103BC000FCD00120704700BF03E007404480044060
:103BD00001E0074000002822094A1378012B01D098
:103BE0000020704703F1804303F5FC236021197026
:103BF0001378802BFCD1034B034A1A6001207047D5
:103C000003E00740448004400000060210B4114B5A
:103C100053F8302092F8804234B1012379B182F810
:103C200080305DF8044B704703EBC0035B681A6893
:103C300051B922F002021A605DF8044B704782F815
:103C400000315DF8044B704742F003021A605DF8E2
:103C5000044B70473CB500001C4A02EBC00301292D
:103C60005B6811D004291BD052F83000002280F884
:103C7000802229B1022920D0032922D01A6070475E
:103C80004FF480721A60704752F830004FF4A272FD
:103C900080F880121A601A6822F020021A607047B9
:103CA00052F830104FF4A272012081F880021A609D
:103CB0001A6842F020021A60704740F203121A603C
:103CC00070474FF481721A60704700BF3CB5000026
:103CD00030B4054B054D064C002210211A602A60B5
:103CE0002060196030BC704714D0034004D00340FA
:103CF00000D003403F2801D8FFF788BF704700BFBE
:103D00003F2801D8FFF7A8BF704700BF2DE9F8434F
:103D1000054672B6224F234B234A1B683C68126843
:103D200062B6520102D5322B88BF0134B5B3C3F558
:103D30002F3303F21F331D4EDFF86890DFF86880E1
:103D40009B084FF47A72A6FB031302FB04F404EB06
:103D5000930472B6D9F800103A68D8F800E062B659
:103D6000C1F52F3303F21F339B08A6FB03031EF09C
:103D7000806FC4EB93034FF47A7002D0322988BF6E
:103D8000013200FB0233B3F57A7F04D3013D05D045
:103D900004F57A74DDE701F09BFEDAE7BDE8F8830D
:103DA0001016FF1F18E000E004ED00E0176CC116CC
:103DB000F8B54E4B4E48DFF85CC14E4C4E49DFF82B
:103DC00058E14E4E4E4D4F4F4FF000621A604FF08B
:103DD00080521A604FF000521A604FF080421A6011
:103DE0004FF000421A600022026028234EF6FF7056
:103DF000CCF80000CEF8003023600EF5012E0B60E9
:103E000033602B6006F500263B6005F50025A362B4
:103E100007F500278B6204F5012401F5012106F660
:103E2000E87605F6E87507F57F6710310EF1100E9C
:103E3000203433602B60CEF800303B600B60236091
:103E4000314CBB618B6109212160A7F5002704F586
:103E50008054203F08343A602060BB60E36047F83C
:103E6000041C04F5FD2407F5FE27043704F2FC7456
:103E700022603860A360FB6044F8041C083404F638
:103E8000FC74C7F8FC2F2060A4F5E124A4F2DC74D4
:103E900033602B60C7F8F81F21681C4841F400719B
:103EA000216001681A4C0EF57F4E0EF1E80E07F501
:103EB000883706F5803605F5803541F000710160E0
:103EC000CEF8002047F6FF710822396033602B607E
:103ED000226001F0F9FE1920FFF718FF01F090F8B9
:103EE00040F21310BDE8F840FFF710BF04E100E016
:103EF00004800340148003401C800340248003405E
:103F00002C80034034800340008003400480044040
:103F100000900C40088003400C8003402DE9F84FCE
:103F2000214B1B6807460BB101221A70DFF88890FD
:103F30001E4D99F80040DFF884801D4E0134272C77
:103F40008ABF4FF0000A5FFA84FA5446AB462B78DA
:103F5000A34216D1FFF708FE40281FDC33791B0669
:103F6000F5D59BF800300133272B86BF002213467E
:103F7000DAB218F80330DBB2F3712A702B78A3425F
:103F8000E8D00C490A4BFFB208F804700120AC22BB
:103F9000087089F800A0DA70BDE8F88FFF28D6DD38
:103FA00001F096FDD3E700BF8816FF1F8516FF1F9F
:103FB00000C006408416FF1F8C16FF1F1C16FF1F33
:103FC0001B4BDFF890C01A681A49F0B542F48052D2
:103FD000194D1A60DFF880E0184F194E194C002374
:103FE0008CF800304FF451722B701F2840F21335BB
:103FF0008EF800303B70337025600A6011D8194686
:104000000124114A114D11701148547000212C27C0
:1040100040269372082491701174D7702E7004603A
:10402000F0BDC0F34431C0F3471400F01F03E8E7CC
:10403000348004400CC004401916FF1F8516FF1F72
:104040008416FF1F08C0044000C0064023E400E0BF
:1040500004E100E01816FF1F8C16FF1F70B5094E13
:1040600004464518AC4204F101040AD03368DB046D
:10407000F8D514F8010CFFF751FFAC4204F101042C
:10408000F4D170BD34800440054A064B10781B788B
:10409000C0B2DBB2984238BF4030C01A704700BF90
:1040A0001816FF1F1916FF1F30B42B4B1A799406F0
:1040B0001FD52A48DA790378294901333F2B09783B
:1040C000C8BF00238B42D2B203D0264CD9B2E254EF
:1040D0000170254A116861B1244A1278D2B2934224
:1040E00036BFC2F140029B1A9B18272BC4BF012385
:1040F0000B70194AD378DBB2180611D45A060DD5C5
:10410000154B1B795B0609D5194B1A491B68002210
:104110000A7003B11A70104B2C22DA7030BC704751
:1041200011790906EAD5144910480C780178C9B20A
:104130008C420DD04A1C272A84BF00210A460F4D0D
:10414000054C98BFD1B2AA5CD2B2E2710170D5E73A
:104150006C21D170D2E700BF00C006401816FF1FC7
:104160001916FF1F4416FF1F1416FF1F8516FF1F89
:104170008816FF1F8416FF1F8C16FF1F1C16FF1FBB
:104180001B4BDFF890C01A681A49F0B542F4806200
:10419000194D1A60DFF880E0184F194E194C0023B2
:1041A0008CF800304FF451722B701F2840F21335F9
:1041B0008EF800303B70337025600A6011D81946C4
:1041C0000124114A114D11701148547000212C27FF
:1041D00040269372042491701174D7702E7004607D
:1041E000F0BDC0F34431C0F3471400F01F03E8E70B
:1041F0002880044060D004409516FF1F0117FF1F60
:104200000017FF1F64D0044000A00E4042E400E00D
:1042100008E100E09416FF1F0817FF1F054A064B30
:1042200010781B78C0B2DBB2984238BF4030C01A59
:10423000704700BF9416FF1F9516FF1F30B4154B33
:10424000154C1A782378D2B2DBB29A421ED00133D1
:104250003F2B0ED91149124B087819680023C0B2C0
:10426000237021B1D31A1A2B01DC00230B7030BC50
:1042700070470A480A49C05C0968DDB2C0B22570BF
:104280000029F4D09A4238BF4032EBE74FF0FF30BC
:10429000EDE700BF9416FF1F9516FF1FC016FF1F06
:1042A0009016FF1F30B42B4B1A7994061FD52A485D
:1042B000DA790378294901333F2B0978C8BF0023F5
:1042C0008B42D2B203D0264CD9B2E2540170254AB7
:1042D000116861B1244A1278D2B2934236BFC2F15A
:1042E00040029B1A9B18272BC4BF01230B70194A4D
:1042F000D378DBB2180611D45A060DD5154B1B79AD
:104300005B0609D5194B1A491B6800220A7003B1D4
:104310001A70104B2C22DA7030BC704711790906E4
:10432000EAD5144910480C780178C9B28C420DD0F6
:104330004A1C272A84BF00210A460F4D054C98BF0E
:10434000D1B2AA5CD2B2E2710170D5E76C21D17012
:10435000D2E700BF00A00E409416FF1F9516FF1F66
:10436000C016FF1F9016FF1F0117FF1F0417FF1F26
:104370000017FF1F0817FF1F9816FF1F431E032B70
:1043800014D872B60A4951F8230068B170B4094CC8
:10439000058834F81320466841F82360521B24F83E
:1043A000132062B670BC704762B670470020704739
:1043B0006417FF1F641AFF1F013803280BD872B659
:1043C000074B53F8203043B100205B680130002BCD
:1043D000FBD162B67047002070471846F9E700BF6E
:1043E000B817FF1F30B472B62B4A13781D0706D5D5
:1043F0002A4B196A002936D0996A002941D053788E
:104400001C0706D5254B196C00293ED0996C002954
:1044100039D09378190705D5204B196E002936D06D
:10442000996E89B1D3781B0707D51C4BD3F8802030
:104430007AB3D3F8882011213AB162B6184B002222
:104440001A7030BC00F07CBE0D21154C154D227841
:1044500043F8315003EBC1030830013A5860227031
:1044600062B630BC704704220D4C0F4D217843F8E2
:10447000325003EBC20308304A1E5860227062B605
:10448000EFE70521E1E70921DFE70822ECE70C224D
:10449000EAE71022E8E700BF74B700000000FF1F42
:1044A000E117FF1FC800400088004000431E032B97
:1044B0001DD81B4A400140F0100030B4104472B6C1
:1044C000184CE25C032A1BD8DFE802F00212151731
:1044D00003220D88E25410F0080F14BFC82388236C
:1044E00043EA054308310360416062B630BC70475F
:1044F00008300222EDE70522EBE708300422E8E766
:10450000094A52F8230038B1084A52F823004160A2
:1045100042F8231062B6E9E742F82310034AF7E7AE
:104520000000FF1FF017FF1FB817FF1FC817FF1F5E
:104530002DE9F04FDFF80CB3DFF80CA387B044E0AF
:10454000AB4F4FEA930807EBC809013ED9F80420A6
:1045500003F00803F6B2A2F1080003F0FF04002BF9
:1045600040F0028157F838301B0C99B222F8081C31
:10457000002B00F0F0809F4B22F8064C42F8044CD0
:1045800053F82620002A00F0C5829B4D55F82630AE
:1045900058609A4C45F8260034F81630194424F82F
:1045A000161000F0ADFD002800F0AD82944A954B46
:1045B00019F0080F00F1080018BF1346C9F80400ED
:1045C00047F8383008238BF800309BF80040E4B2FD
:1045D00061071AD58C4B1B78A3B18C490A7802F07D
:1045E000FF0322B1013BDBB20B7003B900BE884967
:1045F0000A7802F0FF032AB1013BDBB20B70002BFB
:1046000000F0578204238BF8003004F0080303F015
:10461000FF02002B00F0CC809AF80030DBB21E09BC
:104620008ED19C08DFF8C89159F8342009EBC401F9
:10463000C2F38302013A49680C2A00F28880DFE85D
:1046400002F07C7C8686868686864786868607007C
:104650000868704D4A68704F704E286081B240F211
:104660008160674B6A604FF0010E0022814249F879
:1046700034303A60C9F81020C9F8182086F800E0F4
:104680005B4C00F2E380B1F5D06F80F04683B1F56A
:10469000817F00F0FC8200F28D82802900F0778318
:1046A000822940F0FA82A98801F07F01042900F2F2
:1046B000F4825B485B4C8900084422706270027887
:1046C000930740F1588484F800E04FF0020E42E373
:1046D000514F3A6832B3544B504E5449188834788D
:1046E0000D784028864645F0020828BF4FF0400E5E
:1046F000002C84F001043470CEEB00000CBF882441
:10470000C82409EBC80680B285F0010544EA0E44CE
:104710007260188049F8384072440D70002800F02B
:1047200045813A603B4B1A88B2F5A06F0FD100214A
:104730009A7859703E4B1A7009E0364A108842F256
:104740002102904200F037812D4A49F83420394A3D
:104750000123137036E72A4A2A4B19F0080F18BFB5
:10476000134647F838302DE700F0EAFC324A334967
:1047700052F82630002B00F0D18158688C5D42F849
:10478000260003F10802C9F80420032C05D8DFE84D
:1047900004F02C02292602228A551A8819F0080FE3
:1047A0000CBF8823C82343EA024347F8383009E79F
:1047B000E00700F18181210600F1F281A20706D510
:1047C0001F4A204913780220DBB213700870E306F9
:1047D00002D51C4B10221A7007B0BDE8F08F0422DE
:1047E0008A55DAE705228A55D7E703228A55D4E7A6
:1047F0000000FF1F6417FF1F1017FF1F641AFF1F21
:10480000C800400088004000EC17FF1F7517FF1F0D
:10481000F417FF1FD817FF1F0C17FF1F7417FF1F78
:10482000C0200740E417FF1F2017FF1FE017FF1FDE
:104830009820074094200740B817FF1FF017FF1F6C
:1048400088200740802007409020074042F2210046
:10485000814200F02A8100F2D880B1F5086F00F0A3
:104860007682B1F5106F40F01882226AB349A878B9
:104870000870120600F13A83D9F82820B0491306CF
:1048800000F10C83D9F83020AD49150600F1018301
:10489000D9F83820AA49140600F1F682D9F8402048
:1048A000A749100600F14A83D9F84820A449120606
:1048B00000F13F83D9F85020A149130600F1348359
:1048C000D9F858209E49150600F12983D9F86020AF
:1048D0009B49140600F11E83D9F8682098491006F8
:1048E00000F11383D9F870209549120600F108836E
:1048F000D9F878209249130600F1FD82D9F880207A
:104900008F49150600F13183D9F888208C491406A7
:1049100000F12583D9F890208949100600F1198308
:10492000D9F898208649120600F10D838548864AF9
:10493000864901908648874D874C04970023059649
:10494000029580460F4616461D460394306828B1EE
:10495000446800F0F5FB2046002CF9D100233360B9
:10496000029B38681A46002342F8253028B1446873
:1049700000F0E6FB2046002CF9D100223A60019AB3
:1049800098F800301146002241F8042B039A019157
:10499000023B4FF0000122F81510032B00F22B818F
:1049A000DFE813F07001250170012501BEF1400F11
:1049B00018BF0022B5E6694A0D7848781570507026
:1049C0008D78C8789570D07010680D79157186282B
:1049D0004D7989795571917100F09B816049614EE3
:1049E0000A78307882F00105002842F002020D704A
:1049F0000CBF8821C82149F8321009EBC20280F0AF
:104A000001000021307051609EE642F22120814277
:104A100040F0CB81544B554C5549A8781D68256012
:104A2000CDF804E0087000200290804684460446D9
:104A30004B490D7845F0020E09EBCE030393019B21
:104A4000002B039B5C600CBF8824C82444EA080345
:104A500085F0010449F83E3032700C70DFF8E0E078
:104A6000404BDFF8FC80002840F01E81BCF1400F75
:104A70001BD144F0020C09EBCC03029CDFF8C0E030
:104A80005C60002A40F02681020442F088029DF812
:104A900004304EF83C20044433700D702346402807
:104AA00003D10020334A3B601080334A0123137046
:104AB0004DE600F0B1FCA5E5214B2F4828491A61CD
:104AC0004FF0020E80F800E02C4F0A702C4919605C
:104AD00099602C4E2C4D2D4C9A610D213970FF217F
:104AE0003170DFF8B8E029702270294D294A8EF81C
:104AF00000109F27012406F8047C5D600470DA60D2
:104B000007B0BDE8F08F244A47F838001378013326
:104B1000137057E543F826000E4D3AE58B5D032BE5
:104B200000F2F08001A252F823F000BFC54500005A
:104B3000C5450000E94B0000E34B0000EC17FF1FE8
:104B40000000FF1FC817FF1F6417FF1FB817FF1FC4
:104B5000F017FF1F1017FF1F641AFF1F6C1AFF1FAB
:104B6000E017FF1F7417FF1F1016FF1F741AFF1F97
:104B70000418FF1F2017FF1F94200740C020074084
:104B80008800400088200740802007409820074088
:104B90002417FF1F7817FF1FE117FF1F8C20074006
:104BA000C149C24B80220D2008701A70A2077FF500
:104BB0000EAE05E640F20232914240F0EE80A98846
:104BC00001F07F01042968D86A88002A65D1B648B7
:104BD000CDF804E089000844017841F00201017039
:104BE00021E701238B55EDE400238B55EAE44FF0D8
:104BF000010388F800300135042D06F1040607F1A1
:104C0000040708F101087FF4A1AEA94CA94B227852
:104C1000A94D049F059E002129701A70130700F109
:104C200005816278A549DFF8A0820A7010074FF06D
:104C30000001C9F83010C9F8381000F1E080A0492F
:104C4000A2780A700021C9F85010C9F8581011074D
:104C5000DFF8748200F10181E2789A499A4C0A7077
:104C600000211207C9F87010C9F8781000F1B0805F
:104C700033780193002183F00102C9F89010C9F83C
:104C80009810D0E64FF0000388F80030B3E7A98809
:104C900001F07F01042940F28D80834A0F231370B5
:104CA0008A4A0123137052E540287FF6E2AE44F0B1
:104CB00002040EEBC401029E4E60BAB19DF80410CE
:104CC000834A19703346403888F8005040334EF814
:104CD0003420E7E69DF8043033700204029B0D7027
:104CE00042F0C80203444EF83C20D8E69DF8041078
:104CF0001970029B774A88F80050403840334EF8CC
:104D00003420CFE619F0080F0CBF022303238B5584
:104D100058E4714A0F21117060E6704A5468002C03
:104D2000BBD06888B5F804E003E00C325468002C6E
:104D3000B3D013888342F8D153887345F5D1000A64
:104D400003280CBF94F800E0B2F808E003E0644ADE
:104D5000644C12782270E888704580F03F81624987
:104D60000D784028844645F0020E28BF4FF0400CD5
:104D700004EB0C0309EBCE02029301235460CCEB4D
:104D800000004FEA0C4800220193C8245EE6554C0F
:104D90004FF0020E22706270DDE7B1F5A06F7FF474
:104DA0007CAF0123002201933DE642F22132914281
:104DB000F7D072E76A88002A7FF46FAF3A48CDF8DF
:104DC00004E089000844017821F0020101702AE61C
:104DD00000F096F9002800F0EF8008303D4AC4F852
:104DE0008400C4F8802000F08BF9002800F0DE80F9
:104DF0000830374AC9F88C00C9F8882038E700F035
:104E00007FF9002800F0C0800830324AC8F844001A
:104E1000C8F8402000F074F9002800F0AF80083096
:104E20002B4AC9F84C00C9F8482008E700F068F997
:104E3000002800F0CD800830264AC9F82400C9F8BF
:104E4000202000F05DF9002800F0BC800830204AE6
:104E5000C9F82C00C9F82820E3E600F051F9002831
:104E600000F09E8008301B4AC8F86400C8F8602033
:104E700000F046F9002800F08D800830144AC9F887
:104E80006C00C9F86820E7E6C86B083800F058F9EC
:104E900004E5486B083800F053F9F9E4C86A0838AB
:104EA00000F04EF9EEE400BFC0200740802007402C
:104EB00074B70000C4200740E117FF1FC820074057
:104EC000CC200740D02007400000FF1F942007405F
:104ED000C8004000880040007517FF1F78B7000029
:104EE000EC17FF1FE417FF1FE017FF1F606A083869
:104EF00000F026F9C0E4C86F083800F021F9FDE49D
:104F0000486F083800F01CF9F2E4C86E083800F069
:104F100017F9E7E4486E083800F012F9DCE4C86DD0
:104F2000083800F00DF9D1E4486D083800F008F9B0
:104F3000C6E4C86C083800F003F9BBE4486C0838D4
:104F400000F0FEF8B0E4D1F89C00083800F0F8F862
:104F5000ECE4D1F89400083800F0F2F8E0E4D1F87D
:104F60008C00083800F0ECF8D4E4D1F8840008385C
:104F700000F0E6F8C8E44FF0020EECE62A78C9F833
:104F8000480001322A705AE62A78C8F840000132F7
:104F90002A703FE72A78C9F8680001322A705BE678
:104FA0002A78C8F8600001322A7061E72A78C9F8C7
:104FB000880001322A705BE62A78C4F8800001324A
:104FC0002A7010E72A78C9F8280001322A7028E6EA
:104FD0002A78C9F8200001322A7032E7BEF1400F6A
:104FE000F44628BF4FF0400C04EB0C03029301235E
:104FF000CCEB0E004FEA0C480022019318E500BFED
:105000002DE9F04101F020F9314C324B3248DFF804
:10501000E480324EDFF8E0C0314F324DDFF8DCE0A3
:1050200000221A605A609A60DA601A615A619A61C5
:10503000DA611A625A629A62DA621A635A639A638E
:10504000DA631A645A649A64DA641A655A659A656E
:10505000DA651A665A669A66DA661A675A679A674E
:10506000DA67C3F880202168C3F8842041F48021E6
:105070002160016841F040710160032188F800104F
:10508000A020C3F307218CF8000004F52834317008
:10509000C3F30740144938701B0E2B70CC34FF2328
:1050A0008EF80030114D0CF8B83C11480B700123FC
:1050B00006F8083C227070264FF40014102207F8FE
:1050C0002C3C2E70046081F8F820BDE8F08100BF10
:1050D000348004400000FF1F00D800409C2007409F
:1050E000B0200740B42007401020074035E400E01E
:1050F00004E100E0442107404021074080200740B0
:1051000072B60D480268B2FA82F30B2B10DC4FF036
:105110000041D94022EA0102026062B6074803EB6F
:10512000C303DB00C2180021C15010465160704714
:1051300062B60020704700BF8007FF1FD003FF1F2B
:105140000D4B0E4AC31AA2FB03231B090B2B0CD8D1
:105150000B4A127852B972B60A484FF00041026801
:1051600021FA03F31A43026062B67047064A1278C6
:10517000002AF0D0FFF736B9D003FF1F398EE3388D
:10518000E117FF1F8007FF1FEC17FF1F38B50F4DFA
:10519000286878B143880288C118013393420C7A99
:1051A00002D24380204638BDFFF7CAFF00232046C5
:1051B0002B6038BD064B1B782BB10320FFF7DEF8C0
:1051C00028600028E6D14FF0FF3038BD0018FF1FDF
:1051D000EC17FF1F10B5094C206818B1438818441C
:1051E000007A10BD064B1B782BB10320FFF7C6F8E1
:1051F00020600028F2D14FF0FF3010BD0018FF1FD3
:10520000EC17FF1F044B054A1B6890881BB11A88D6
:105210005B88D31A184470470018FF1F641AFF1FD9
:105220000B4B1B789BB110B50A4C206848B1FFF7B7
:1052300087FF002303202360FFF7A0F830B1FFF7BA
:105240007FFF0320FFF79AF80028F8D110BD7047C0
:10525000EC17FF1F0018FF1F2DE9F04FDFF8F89043
:1052600083B0012289F80020019169B3DFF8EC8056
:10527000354F019E8346D8F80000B0B3334D4488C3
:10528000C4F14001B14228BF314604EB010E0022B7
:105290001FFA8EFE2A70761AA0F802E000F10802CA
:1052A00051B1013C224459441BF8014B02F8014F13
:1052B0008B45F9D1B0F802E0BEF13F0F0BD8244A7C
:1052C00005211170002ED6D10198002389F80030F5
:1052D00003B0BDE8F08F4022028001460420FFF7B2
:1052E000E5F80022C8F80020E9E73A7822B3194C23
:1052F000164D4FF0010A07E0013C16D02A78A2B9FA
:1053000000F0E6FB3A78BAB10420FFF755F8072819
:10531000F2D889F800A0FFF7F3FEC8F800000028D3
:10532000ADD10D4B013C1870E8D101234FF0FF3097
:105330002B7003B0BDE8F08F00234FF0FF3089F8E9
:10534000003003B0BDE8F08FEC17FF1FFC17FF1F04
:10535000F417FF1F21480100F517FF1FF817FF1F63
:1053600000B583B002AB012103F8010D1846FFF729
:1053700073FF03B05DF804FB38B50E4D0E4C286882
:105380000123237028B1408800232370C0F140001E
:1053900038BD0A4B1B7813B90020207038BD04209B
:1053A000FFF70AF80728F7D8FFF7AAFE28600028B9
:1053B000E9D1F1E7F817FF1FF517FF1FEC17FF1FE3
:1053C000F8B5114B1B788BB1104E114D3468012785
:1053D0002F7064B10F4A638800271770214623801D
:1053E0000420FFF763F8376000232B70F8BDFFF748
:1053F00087FE084B28B1014604201C70FFF756F8C1
:10540000F2E71F70F0E700BFEC17FF1FF817FF1F50
:10541000F517FF1FF417FF1F38B50E4B1B7873B934
:105420000D4C216861B103F0FF054B880B8004200F
:10543000FFF73CF8256038BD084B01221A7038BDD3
:10544000FFF75EFE0028F7D00146BDE83840042093
:10545000FFF72CB8F517FF1FF817FF1FF417FF1FF2
:1054600010B4EFF3108272B6437F33B9017F012984
:1054700008D0032910D00123437702B962B65DF842
:10548000044B7047114C2168A1B1114943610B686D
:10549000836108605861EEE70E4C216881B10E49C6
:1054A00043610B688361086058610C4B4FF0805179
:1054B0001960E0E7064B4161816120601860DAE71E
:1054C000054B4161816120601860EEE71818FF1FED
:1054D0001418FF1F0818FF1F0C18FF1F04ED00E031
:1054E00070B5EFF3108272B60C4C206880B10C4E90
:1054F00000254369236073B19D6102B962B64577A7
:1055000083689847EFF3108272B620680028F0D1C4
:1055100002B962B670BD3360EFE700BF0818FF1F25
:105520000C18FF1FFFF7DCBF184A30B41468002CBA
:1055300027D0036821688B420ED2CB1A00218460E9
:10554000C1602360E06010600223037530BC7047C7
:1055500011688B42144608D3A2685B1A0360002AC4
:10556000F6D18260C460A060EEE7D268C260846059
:10557000E060C568CB1A0222A8602360027530BCC7
:1055800070478460C4601060DEE700BF1018FF1F22
:10559000F8B5224E34682CB32368002B3AD1204F43
:1055A0001D4604E03468ECB12368002B32D1A368B7
:1055B00003B1DD6020693360036825751B68BB4259
:1055C00021D1037F4560022BC46020D0FFF748FF44
:1055D0006368002BE6D023602046FFF7A5FF346800
:1055E000002CE1D1EFF3108372B60E4A002110684F
:1055F000116003B962B628B18468FFF795FF2046B1
:105600000028F9D1F8BD224600219847E0E78368D9
:105610009847DDE7013B2360E4E700BF1018FF1F58
:10562000113900002018FF1F024A1368013313606C
:10563000FFF7AEBF1016FF1F08B5FAF721FFFAF704
:1056400057FF00F045FAFAE7F8B50E4671B17AB1A6
:105650000746144600253B6816F8011B1B683846B0
:105660009847013C0544F6D12846F8BD0846F8BDE8
:105670001046F8BD2DE9F0438C688BB0ECB10025E5
:10568000064689462F462B46212201A9484600F0AE
:1056900005FA3268202C234628BF2023D2F8048044
:1056A00001A91A4630461D44E41AC0470744002C9D
:1056B000E9D138460BB0BDE8F0832746F9E700BFD3
:1056C00000B5064A036812885B6883B001A9ADF88B
:1056D00004200222984703B05DF804FB3CB70000A9
:1056E000F0B507468BB0002A33D0012A08BF0A2242
:1056F00051B3212400E0F4B2B1FBF2F502FB151125
:10570000C8B2092900F1300198BFC8B20AA988BF00
:105710003730214488BFC0B201F8240C661E2946E8
:10572000002DE8D133B1013CE4B20AAB23442D2271
:1057300003F8242C3B6801AA11195B683846C4F1B0
:10574000220298470BB0F0BD30228DF8252021248D
:10575000E8E70368C9B21B6898470BB0F0BD00BF0B
:105760002DE9F04357EC106B85B005460C4610EE62
:10577000102A3B4610EE100A394601F005FA0028BF
:1057800040F0B28027F00049304649464FF0FF32E2
:10579000594B01F0F9F990B9304649464FF0FF32C4
:1057A000554B01F0D3F950B92B6854495B68284632
:1057B000032298478046404605B0BDE8F0834FF08D
:1057C00060424F4B3046394601F0D4F9002872D17F
:1057D0004FF060424B4B3046394601F0ADF900289E
:1057E00069D1002200233046394601F0A5F900288E
:1057F00064D18146002C67D0434900204FF0000857
:105800003BA3D3E9002308F1010800F023FF5FFA6E
:1058100088F39C42F4D802460B463046394600F0E5
:1058200067FD0F46064601F0EDF9804600F09CFE4C
:1058300002460B463046394600F058FD4B460646B8
:105840000F460A2241462846FFF74AFF0F2C28BF81
:105850000F2404F101092E2380465FFA89F98DF89F
:10586000003001240022294B3046394600F0F2FE78
:105870000F46064601F0C6F904AB2344C0B200F15E
:10588000300203F8102C00F07FFE02460B46304633
:10589000394600F02BFD0134E4B24C4506460F4674
:1058A000E0D12B6822465B68284669469847404607
:1058B00005B0BDE8F0832B68154977E707F1004391
:1058C0001F464FF0010995E700220F4B304639463D
:1058D00000F00EFD01F096F94B4601460A222846DB
:1058E000FFF7FEFE804666E72B680A495EE700BFC9
:1058F000000000A09999B93FFFFFEF7F48B7000073
:10590000FFFFEF41FFFFEFC10000E03F0000244038
:1059100044B7000040B70000FFF782BCFFF75ABC55
:10592000FFF734BCFFF76EBCFFF74ABDFFF724BD9D
:1059300008461146FFF790BC0846FFF711BD00BFAF
:10594000704700BF10B50446006801F0C5F9204655
:1059500010BD00BF38B543688B4201D3012038BD6C
:105960000D4604460131006801F074FD0028F6D0B0
:10597000A36884E82100002BF0D10370EEE700BF9C
:10598000F8B50446154632B9036803B11A7000230E
:10599000A3602046F8BD0E461146FFF7DBFF074621
:1059A00048B9206810B101F097F9276000236360BF
:1059B000A3602046F8BDA5603146206801F0E2FFF3
:1059C000E7E700BF38B50023044603604360836007
:1059D000037341B108460D4602F032F829460246EB
:1059E0002046FFF7CDFF204638BD00BF0023884288
:1059F00010B50446036043608360037303D08A6874
:105A00000968FFF7BDFF204610BD00BF814203D0EB
:105A10008A680968FFF7B4BF704700BF2DE9F843F3
:105A200003680F46BB420446816815460AD85A18D7
:105A3000974207D2C3EB07094FF0010835B920465A
:105A4000BDE8F8834FF00008002DF8D04E1931461C
:105A50002046FFF77FFF0028F1D0B8F1000F0ED0ED
:105A60002368A0682A4603EB0901184400F092F865
:105A7000236800229A55A6602046BDE8F883206876
:105A8000A3683946184401F07DFFF4E710B58A6831
:105A900009680446FFF7C2FF204610BDB2B1A9B1A4
:105AA00038B584689C420ED9E41A013A0D469442F6
:105AB000016828BF144619442246284602F02EF8F1
:105AC00000232B5538BD00230B7038BD704700BF35
:105AD00038B52C4C237803B138BD01232370FFF770
